{
  "_format": "hh-sol-artifact-1",
  "contractName": "ReputationCard",
  "sourceName": "contracts/ReputationCard.sol",
  "abi": [
    {
      "inputs": [
        {
          "internalType": "address",
          "name": "admin",
          "type": "address"
        },
        {
          "internalType": "address",
          "name": "_profileNFTContract",
          "type": "address"
        }
      ],
      "stateMutability": "nonpayable",
      "type": "constructor"
    },
    {
      "inputs": [],
      "name": "AccessControlBadConfirmation",
      "type": "error"
    },
    {
      "inputs": [
        {
          "internalType": "address",
          "name": "account",
          "type": "address"
        },
        {
          "internalType": "bytes32",
          "name": "neededRole",
          "type": "bytes32"
        }
      ],
      "name": "AccessControlUnauthorizedAccount",
      "type": "error"
    },
    {
      "inputs": [],
      "name": "ECDSAInvalidSignature",
      "type": "error"
    },
    {
      "inputs": [
        {
          "internalType": "uint256",
          "name": "length",
          "type": "uint256"
        }
      ],
      "name": "ECDSAInvalidSignatureLength",
      "type": "error"
    },
    {
      "inputs": [
        {
          "internalType": "bytes32",
          "name": "s",
          "type": "bytes32"
        }
      ],
      "name": "ECDSAInvalidSignatureS",
      "type": "error"
    },
    {
      "inputs": [
        {
          "internalType": "address",
          "name": "sender",
          "type": "address"
        },
        {
          "internalType": "uint256",
          "name": "tokenId",
          "type": "uint256"
        },
        {
          "internalType": "address",
          "name": "owner",
          "type": "address"
        }
      ],
      "name": "ERC721IncorrectOwner",
      "type": "error"
    },
    {
      "inputs": [
        {
          "internalType": "address",
          "name": "operator",
          "type": "address"
        },
        {
          "internalType": "uint256",
          "name": "tokenId",
          "type": "uint256"
        }
      ],
      "name": "ERC721InsufficientApproval",
      "type": "error"
    },
    {
      "inputs": [
        {
          "internalType": "address",
          "name": "approver",
          "type": "address"
        }
      ],
      "name": "ERC721InvalidApprover",
      "type": "error"
    },
    {
      "inputs": [
        {
          "internalType": "address",
          "name": "operator",
          "type": "address"
        }
      ],
      "name": "ERC721InvalidOperator",
      "type": "error"
    },
    {
      "inputs": [
        {
          "internalType": "address",
          "name": "owner",
          "type": "address"
        }
      ],
      "name": "ERC721InvalidOwner",
      "type": "error"
    },
    {
      "inputs": [
        {
          "internalType": "address",
          "name": "receiver",
          "type": "address"
        }
      ],
      "name": "ERC721InvalidReceiver",
      "type": "error"
    },
    {
      "inputs": [
        {
          "internalType": "address",
          "name": "sender",
          "type": "address"
        }
      ],
      "name": "ERC721InvalidSender",
      "type": "error"
    },
    {
      "inputs": [
        {
          "internalType": "uint256",
          "name": "tokenId",
          "type": "uint256"
        }
      ],
      "name": "ERC721NonexistentToken",
      "type": "error"
    },
    {
      "inputs": [],
      "name": "InvalidShortString",
      "type": "error"
    },
    {
      "inputs": [
        {
          "internalType": "string",
          "name": "str",
          "type": "string"
        }
      ],
      "name": "StringTooLong",
      "type": "error"
    },
    {
      "anonymous": false,
      "inputs": [
        {
          "indexed": true,
          "internalType": "address",
          "name": "owner",
          "type": "address"
        },
        {
          "indexed": true,
          "internalType": "address",
          "name": "approved",
          "type": "address"
        },
        {
          "indexed": true,
          "internalType": "uint256",
          "name": "tokenId",
          "type": "uint256"
        }
      ],
      "name": "Approval",
      "type": "event"
    },
    {
      "anonymous": false,
      "inputs": [
        {
          "indexed": true,
          "internalType": "address",
          "name": "owner",
          "type": "address"
        },
        {
          "indexed": true,
          "internalType": "address",
          "name": "operator",
          "type": "address"
        },
        {
          "indexed": false,
          "internalType": "bool",
          "name": "approved",
          "type": "bool"
        }
      ],
      "name": "ApprovalForAll",
      "type": "event"
    },
    {
      "anonymous": false,
      "inputs": [
        {
          "indexed": true,
          "internalType": "uint256",
          "name": "profileId",
          "type": "uint256"
        },
        {
          "indexed": true,
          "internalType": "uint256",
          "name": "cardId",
          "type": "uint256"
        },
        {
          "indexed": true,
          "internalType": "address",
          "name": "issuer",
          "type": "address"
        },
        {
          "indexed": false,
          "internalType": "uint8",
          "name": "tier",
          "type": "uint8"
        }
      ],
      "name": "CardIssued",
      "type": "event"
    },
    {
      "anonymous": false,
      "inputs": [],
      "name": "EIP712DomainChanged",
      "type": "event"
    },
    {
      "anonymous": false,
      "inputs": [
        {
          "indexed": true,
          "internalType": "bytes32",
          "name": "role",
          "type": "bytes32"
        },
        {
          "indexed": true,
          "internalType": "bytes32",
          "name": "previousAdminRole",
          "type": "bytes32"
        },
        {
          "indexed": true,
          "internalType": "bytes32",
          "name": "newAdminRole",
          "type": "bytes32"
        }
      ],
      "name": "RoleAdminChanged",
      "type": "event"
    },
    {
      "anonymous": false,
      "inputs": [
        {
          "indexed": true,
          "internalType": "bytes32",
          "name": "role",
          "type": "bytes32"
        },
        {
          "indexed": true,
          "internalType": "address",
          "name": "account",
          "type": "address"
        },
        {
          "indexed": true,
          "internalType": "address",
          "name": "sender",
          "type": "address"
        }
      ],
      "name": "RoleGranted",
      "type": "event"
    },
    {
      "anonymous": false,
      "inputs": [
        {
          "indexed": true,
          "internalType": "bytes32",
          "name": "role",
          "type": "bytes32"
        },
        {
          "indexed": true,
          "internalType": "address",
          "name": "account",
          "type": "address"
        },
        {
          "indexed": true,
          "internalType": "address",
          "name": "sender",
          "type": "address"
        }
      ],
      "name": "RoleRevoked",
      "type": "event"
    },
    {
      "anonymous": false,
      "inputs": [
        {
          "indexed": true,
          "internalType": "uint256",
          "name": "templateId",
          "type": "uint256"
        },
        {
          "indexed": true,
          "internalType": "address",
          "name": "issuer",
          "type": "address"
        },
        {
          "indexed": false,
          "internalType": "uint256",
          "name": "maxSupply",
          "type": "uint256"
        },
        {
          "indexed": false,
          "internalType": "uint8",
          "name": "tier",
          "type": "uint8"
        }
      ],
      "name": "TemplateCreated",
      "type": "event"
    },
    {
      "anonymous": false,
      "inputs": [
        {
          "indexed": true,
          "internalType": "address",
          "name": "from",
          "type": "address"
        },
        {
          "indexed": true,
          "internalType": "address",
          "name": "to",
          "type": "address"
        },
        {
          "indexed": true,
          "internalType": "uint256",
          "name": "tokenId",
          "type": "uint256"
        }
      ],
      "name": "Transfer",
      "type": "event"
    },
    {
      "inputs": [],
      "name": "DEFAULT_ADMIN_ROLE",
      "outputs": [
        {
          "internalType": "bytes32",
          "name": "",
          "type": "bytes32"
        }
      ],
      "stateMutability": "view",
      "type": "function"
    },
    {
      "inputs": [],
      "name": "TEMPLATE_MANAGER_ROLE",
      "outputs": [
        {
          "internalType": "bytes32",
          "name": "",
          "type": "bytes32"
        }
      ],
      "stateMutability": "view",
      "type": "function"
    },
    {
      "inputs": [
        {
          "internalType": "address",
          "name": "to",
          "type": "address"
        },
        {
          "internalType": "uint256",
          "name": "tokenId",
          "type": "uint256"
        }
      ],
      "name": "approve",
      "outputs": [],
      "stateMutability": "nonpayable",
      "type": "function"
    },
    {
      "inputs": [
        {
          "internalType": "address",
          "name": "owner",
          "type": "address"
        }
      ],
      "name": "balanceOf",
      "outputs": [
        {
          "internalType": "uint256",
          "name": "",
          "type": "uint256"
        }
      ],
      "stateMutability": "view",
      "type": "function"
    },
    {
      "inputs": [
        {
          "internalType": "uint256",
          "name": "profileId",
          "type": "uint256"
        }
      ],
      "name": "calculateScoreForProfile",
      "outputs": [
        {
          "internalType": "uint256",
          "name": "",
          "type": "uint256"
        }
      ],
      "stateMutability": "pure",
      "type": "function"
    },
    {
      "inputs": [
        {
          "internalType": "uint256",
          "name": "",
          "type": "uint256"
        }
      ],
      "name": "cardToProfileId",
      "outputs": [
        {
          "internalType": "uint256",
          "name": "",
          "type": "uint256"
        }
      ],
      "stateMutability": "view",
      "type": "function"
    },
    {
      "inputs": [
        {
          "internalType": "address",
          "name": "_user",
          "type": "address"
        },
        {
          "internalType": "uint256",
          "name": "_profileId",
          "type": "uint256"
        },
        {
          "internalType": "uint256",
          "name": "_templateId",
          "type": "uint256"
        },
        {
          "internalType": "uint256",
          "name": "_nonce",
          "type": "uint256"
        },
        {
          "internalType": "string",
          "name": "_tokenURI",
          "type": "string"
        },
        {
          "internalType": "bytes",
          "name": "_signature",
          "type": "bytes"
        }
      ],
      "name": "claimWithSignature",
      "outputs": [
        {
          "internalType": "uint256",
          "name": "",
          "type": "uint256"
        }
      ],
      "stateMutability": "nonpayable",
      "type": "function"
    },
    {
      "inputs": [
        {
          "internalType": "uint256",
          "name": "_templateId",
          "type": "uint256"
        },
        {
          "internalType": "address",
          "name": "_issuer",
          "type": "address"
        },
        {
          "internalType": "uint256",
          "name": "_maxSupply",
          "type": "uint256"
        },
        {
          "internalType": "uint8",
          "name": "_tier",
          "type": "uint8"
        }
      ],
      "name": "createTemplate",
      "outputs": [],
      "stateMutability": "nonpayable",
      "type": "function"
    },
    {
      "inputs": [],
      "name": "eip712Domain",
      "outputs": [
        {
          "internalType": "bytes1",
          "name": "fields",
          "type": "bytes1"
        },
        {
          "internalType": "string",
          "name": "name",
          "type": "string"
        },
        {
          "internalType": "string",
          "name": "version",
          "type": "string"
        },
        {
          "internalType": "uint256",
          "name": "chainId",
          "type": "uint256"
        },
        {
          "internalType": "address",
          "name": "verifyingContract",
          "type": "address"
        },
        {
          "internalType": "bytes32",
          "name": "salt",
          "type": "bytes32"
        },
        {
          "internalType": "uint256[]",
          "name": "extensions",
          "type": "uint256[]"
        }
      ],
      "stateMutability": "view",
      "type": "function"
    },
    {
      "inputs": [
        {
          "internalType": "uint256",
          "name": "tokenId",
          "type": "uint256"
        }
      ],
      "name": "getApproved",
      "outputs": [
        {
          "internalType": "address",
          "name": "",
          "type": "address"
        }
      ],
      "stateMutability": "view",
      "type": "function"
    },
    {
      "inputs": [
        {
          "internalType": "bytes32",
          "name": "role",
          "type": "bytes32"
        }
      ],
      "name": "getRoleAdmin",
      "outputs": [
        {
          "internalType": "bytes32",
          "name": "",
          "type": "bytes32"
        }
      ],
      "stateMutability": "view",
      "type": "function"
    },
    {
      "inputs": [
        {
          "internalType": "bytes32",
          "name": "role",
          "type": "bytes32"
        },
        {
          "internalType": "address",
          "name": "account",
          "type": "address"
        }
      ],
      "name": "grantRole",
      "outputs": [],
      "stateMutability": "nonpayable",
      "type": "function"
    },
    {
      "inputs": [
        {
          "internalType": "bytes32",
          "name": "role",
          "type": "bytes32"
        },
        {
          "internalType": "address",
          "name": "account",
          "type": "address"
        }
      ],
      "name": "hasRole",
      "outputs": [
        {
          "internalType": "bool",
          "name": "",
          "type": "bool"
        }
      ],
      "stateMutability": "view",
      "type": "function"
    },
    {
      "inputs": [
        {
          "internalType": "address",
          "name": "owner",
          "type": "address"
        },
        {
          "internalType": "address",
          "name": "operator",
          "type": "address"
        }
      ],
      "name": "isApprovedForAll",
      "outputs": [
        {
          "internalType": "bool",
          "name": "",
          "type": "bool"
        }
      ],
      "stateMutability": "view",
      "type": "function"
    },
    {
      "inputs": [],
      "name": "name",
      "outputs": [
        {
          "internalType": "string",
          "name": "",
          "type": "string"
        }
      ],
      "stateMutability": "view",
      "type": "function"
    },
    {
      "inputs": [
        {
          "internalType": "uint256",
          "name": "tokenId",
          "type": "uint256"
        }
      ],
      "name": "ownerOf",
      "outputs": [
        {
          "internalType": "address",
          "name": "",
          "type": "address"
        }
      ],
      "stateMutability": "view",
      "type": "function"
    },
    {
      "inputs": [],
      "name": "profileNFTContract",
      "outputs": [
        {
          "internalType": "address",
          "name": "",
          "type": "address"
        }
      ],
      "stateMutability": "view",
      "type": "function"
    },
    {
      "inputs": [
        {
          "internalType": "bytes32",
          "name": "role",
          "type": "bytes32"
        },
        {
          "internalType": "address",
          "name": "callerConfirmation",
          "type": "address"
        }
      ],
      "name": "renounceRole",
      "outputs": [],
      "stateMutability": "nonpayable",
      "type": "function"
    },
    {
      "inputs": [
        {
          "internalType": "bytes32",
          "name": "role",
          "type": "bytes32"
        },
        {
          "internalType": "address",
          "name": "account",
          "type": "address"
        }
      ],
      "name": "revokeRole",
      "outputs": [],
      "stateMutability": "nonpayable",
      "type": "function"
    },
    {
      "inputs": [
        {
          "internalType": "address",
          "name": "from",
          "type": "address"
        },
        {
          "internalType": "address",
          "name": "to",
          "type": "address"
        },
        {
          "internalType": "uint256",
          "name": "tokenId",
          "type": "uint256"
        }
      ],
      "name": "safeTransferFrom",
      "outputs": [],
      "stateMutability": "nonpayable",
      "type": "function"
    },
    {
      "inputs": [
        {
          "internalType": "address",
          "name": "from",
          "type": "address"
        },
        {
          "internalType": "address",
          "name": "to",
          "type": "address"
        },
        {
          "internalType": "uint256",
          "name": "tokenId",
          "type": "uint256"
        },
        {
          "internalType": "bytes",
          "name": "data",
          "type": "bytes"
        }
      ],
      "name": "safeTransferFrom",
      "outputs": [],
      "stateMutability": "nonpayable",
      "type": "function"
    },
    {
      "inputs": [
        {
          "internalType": "address",
          "name": "operator",
          "type": "address"
        },
        {
          "internalType": "bool",
          "name": "approved",
          "type": "bool"
        }
      ],
      "name": "setApprovalForAll",
      "outputs": [],
      "stateMutability": "nonpayable",
      "type": "function"
    },
    {
      "inputs": [
        {
          "internalType": "uint8",
          "name": "tier",
          "type": "uint8"
        },
        {
          "internalType": "uint256",
          "name": "score",
          "type": "uint256"
        }
      ],
      "name": "setTierScore",
      "outputs": [],
      "stateMutability": "nonpayable",
      "type": "function"
    },
    {
      "inputs": [
        {
          "internalType": "bytes4",
          "name": "interfaceId",
          "type": "bytes4"
        }
      ],
      "name": "supportsInterface",
      "outputs": [
        {
          "internalType": "bool",
          "name": "",
          "type": "bool"
        }
      ],
      "stateMutability": "view",
      "type": "function"
    },
    {
      "inputs": [],
      "name": "symbol",
      "outputs": [
        {
          "internalType": "string",
          "name": "",
          "type": "string"
        }
      ],
      "stateMutability": "view",
      "type": "function"
    },
    {
      "inputs": [
        {
          "internalType": "uint256",
          "name": "",
          "type": "uint256"
        }
      ],
      "name": "templates",
      "outputs": [
        {
          "internalType": "address",
          "name": "issuer",
          "type": "address"
        },
        {
          "internalType": "uint256",
          "name": "maxSupply",
          "type": "uint256"
        },
        {
          "internalType": "uint256",
          "name": "currentSupply",
          "type": "uint256"
        },
        {
          "internalType": "uint8",
          "name": "tier",
          "type": "uint8"
        }
      ],
      "stateMutability": "view",
      "type": "function"
    },
    {
      "inputs": [
        {
          "internalType": "uint8",
          "name": "",
          "type": "uint8"
        }
      ],
      "name": "tierToScore",
      "outputs": [
        {
          "internalType": "uint256",
          "name": "",
          "type": "uint256"
        }
      ],
      "stateMutability": "view",
      "type": "function"
    },
    {
      "inputs": [
        {
          "internalType": "uint256",
          "name": "tokenId",
          "type": "uint256"
        }
      ],
      "name": "tokenURI",
      "outputs": [
        {
          "internalType": "string",
          "name": "",
          "type": "string"
        }
      ],
      "stateMutability": "view",
      "type": "function"
    },
    {
      "inputs": [
        {
          "internalType": "address",
          "name": "from",
          "type": "address"
        },
        {
          "internalType": "address",
          "name": "to",
          "type": "address"
        },
        {
          "internalType": "uint256",
          "name": "tokenId",
          "type": "uint256"
        }
      ],
      "name": "transferFrom",
      "outputs": [],
      "stateMutability": "nonpayable",
      "type": "function"
    },
    {
      "inputs": [
        {
          "internalType": "bytes32",
          "name": "",
          "type": "bytes32"
        }
      ],
      "name": "usedNonces",
      "outputs": [
        {
          "internalType": "bool",
          "name": "",
          "type": "bool"
        }
      ],
      "stateMutability": "view",
      "type": "function"
    }
  ],
  "bytecode": "0x6101806040523480156200001257600080fd5b5060405162004d6f38038062004d6f8339818101604052810190620000389190620005d0565b6040518060400160405280601681526020017f547275737446692052657075746174696f6e43617264000000000000000000008152506040518060400160405280600181526020017f31000000000000000000000000000000000000000000000000000000000000008152506040518060400160405280601781526020017f547275737446692052657075746174696f6e20436172640000000000000000008152506040518060400160405280600481526020017f5446494300000000000000000000000000000000000000000000000000000000815250816000908162000121919062000891565b50806001908162000133919062000891565b5050506200014c600783620002c360201b90919060201c565b61012081815250506200016a600882620002c360201b90919060201c565b6101408181525050818051906020012060e08181525050808051906020012061010081815250504660a08181525050620001a96200031b60201b60201c565b608081815250503073ffffffffffffffffffffffffffffffffffffffff1660c08173ffffffffffffffffffffffffffffffffffffffff168152505050508073ffffffffffffffffffffffffffffffffffffffff166101608173ffffffffffffffffffffffffffffffffffffffff1681525050620002306000801b836200037860201b60201c565b50620002637fa2ce6da432ca018c0a930f8d32cbef4b1852a51301976b8a0da30776fc502ed4836200037860201b60201c565b50600a600d6000600160ff168152602001908152602001600020819055506032600d6000600260ff1681526020019081526020016000208190555060c8600d6000600360ff16815260200190815260200160002081905550505062000b67565b6000602083511015620002e957620002e1836200047c60201b60201c565b905062000315565b82620002fb83620004e960201b60201c565b60000190816200030c919062000891565b5060ff60001b90505b92915050565b60007f8b73c3c69bb8fe3d512ecc4cf759cc79239f7b179b0ffacaa9a75d522b39400f60e0516101005146306040516020016200035d959493929190620009b5565b60405160208183030381529060405280519060200120905090565b60006200038c8383620004f360201b60201c565b620004715760016006600085815260200190815260200160002060000160008473ffffffffffffffffffffffffffffffffffffffff1673ffffffffffffffffffffffffffffffffffffffff16815260200190815260200160002060006101000a81548160ff0219169083151502179055506200040d6200055e60201b60201c565b73ffffffffffffffffffffffffffffffffffffffff168273ffffffffffffffffffffffffffffffffffffffff16847f2f8788117e7eff1d82e926ec794901d17c78024a50270940304540a733656f0d60405160405180910390a46001905062000476565b600090505b92915050565b600080829050601f81511115620004cc57826040517f305a27a9000000000000000000000000000000000000000000000000000000008152600401620004c3919062000aa1565b60405180910390fd5b805181620004da9062000af7565b60001c1760001b915050919050565b6000819050919050565b60006006600084815260200190815260200160002060000160008373ffffffffffffffffffffffffffffffffffffffff1673ffffffffffffffffffffffffffffffffffffffff16815260200190815260200160002060009054906101000a900460ff16905092915050565b600033905090565b600080fd5b600073ffffffffffffffffffffffffffffffffffffffff82169050919050565b600062000598826200056b565b9050919050565b620005aa816200058b565b8114620005b657600080fd5b50565b600081519050620005ca816200059f565b92915050565b60008060408385031215620005ea57620005e962000566565b5b6000620005fa85828601620005b9565b92505060206200060d85828601620005b9565b9150509250929050565b600081519050919050565b7f4e487b7100000000000000000000000000000000000000000000000000000000600052604160045260246000fd5b7f4e487b7100000000000000000000000000000000000000000000000000000000600052602260045260246000fd5b600060028204905060018216806200069957607f821691505b602082108103620006af57620006ae62000651565b5b50919050565b60008190508160005260206000209050919050565b60006020601f8301049050919050565b600082821b905092915050565b600060088302620007197fffffffffffffffffffffffffffffffffffffffffffffffffffffffffffffffff82620006da565b620007258683620006da565b95508019841693508086168417925050509392505050565b6000819050919050565b6000819050919050565b6000620007726200076c62000766846200073d565b62000747565b6200073d565b9050919050565b6000819050919050565b6200078e8362000751565b620007a66200079d8262000779565b848454620006e7565b825550505050565b600090565b620007bd620007ae565b620007ca81848462000783565b505050565b5b81811015620007f257620007e6600082620007b3565b600181019050620007d0565b5050565b601f82111562000841576200080b81620006b5565b6200081684620006ca565b8101602085101562000826578190505b6200083e6200083585620006ca565b830182620007cf565b50505b505050565b600082821c905092915050565b6000620008666000198460080262000846565b1980831691505092915050565b600062000881838362000853565b9150826002028217905092915050565b6200089c8262000617565b67ffffffffffffffff811115620008b857620008b762000622565b5b620008c4825462000680565b620008d1828285620007f6565b600060209050601f831160018114620009095760008415620008f4578287015190505b62000900858262000873565b86555062000970565b601f1984166200091986620006b5565b60005b8281101562000943578489015182556001820191506020850194506020810190506200091c565b868310156200096357848901516200095f601f89168262000853565b8355505b6001600288020188555050505b505050505050565b6000819050919050565b6200098d8162000978565b82525050565b6200099e816200073d565b82525050565b620009af816200058b565b82525050565b600060a082019050620009cc600083018862000982565b620009db602083018762000982565b620009ea604083018662000982565b620009f9606083018562000993565b62000a086080830184620009a4565b9695505050505050565b600082825260208201905092915050565b60005b8381101562000a4357808201518184015260208101905062000a26565b60008484015250505050565b6000601f19601f8301169050919050565b600062000a6d8262000617565b62000a79818562000a12565b935062000a8b81856020860162000a23565b62000a968162000a4f565b840191505092915050565b6000602082019050818103600083015262000abd818462000a60565b905092915050565b600081519050919050565b6000819050602082019050919050565b600062000aee825162000978565b80915050919050565b600062000b048262000ac5565b8262000b108462000ad0565b905062000b1d8162000ae0565b9250602082101562000b605762000b5b7fffffffffffffffffffffffffffffffffffffffffffffffffffffffffffffffff83602003600802620006da565b831692505b5050919050565b60805160a05160c05160e0516101005161012051610140516101605161419462000bdb60003960008181610d890152818161104f01526118a601526000611b7201526000611b370152600061282b0152600061280a015260006121fd015260006122530152600061227c01526141946000f3fe608060405234801561001057600080fd5b50600436106101da5760003560e01c806370a0823111610104578063b88d4fde116100a2578063df8e1e9311610071578063df8e1e93146105a6578063e985e9c5146105c4578063faf790d9146105f4578063feb6172414610624576101da565b8063b88d4fde1461050b578063bc52565214610527578063c87b56dd1461055a578063d547741f1461058a576101da565b806395d89b41116100de57806395d89b41146104835780639d6aa2e1146104a1578063a217fddf146104d1578063a22cb465146104ef576101da565b806370a08231146103ff57806384b0196e1461042f57806391d1485414610453576101da565b806323b872dd1161017c57806342842e0e1161014b57806342842e0e1461036557806347dabc92146103815780634e55427f146103b15780636352211e146103cf576101da565b806323b872dd146102e1578063248a9ca3146102fd5780632f2ff15d1461032d57806336568abe14610349576101da565b806308dd7e6a116101b857806308dd7e6a1461025d578063095ea7b3146102795780631679b4471461029557806322581be9146102b1576101da565b806301ffc9a7146101df57806306fdde031461020f578063081812fc1461022d575b600080fd5b6101f960048036038101906101f49190612c24565b610654565b6040516102069190612c6c565b60405180910390f35b610217610666565b6040516102249190612d17565b60405180910390f35b61024760048036038101906102429190612d6f565b6106f8565b6040516102549190612ddd565b60405180910390f35b61027760048036038101906102729190612e5d565b610714565b005b610293600480360381019061028e9190612ec4565b6109cd565b005b6102af60048036038101906102aa9190612f04565b6109e3565b005b6102cb60048036038101906102c691906130d9565b610a13565b6040516102d891906131b3565b60405180910390f35b6102fb60048036038101906102f691906131ce565b610e67565b005b61031760048036038101906103129190613257565b610f69565b6040516103249190613293565b60405180910390f35b610347600480360381019061034291906132ae565b610f89565b005b610363600480360381019061035e91906132ae565b610fab565b005b61037f600480360381019061037a91906131ce565b611026565b005b61039b60048036038101906103969190612d6f565b611046565b6040516103a891906131b3565b60405180910390f35b6103b961104d565b6040516103c69190612ddd565b60405180910390f35b6103e960048036038101906103e49190612d6f565b611071565b6040516103f69190612ddd565b60405180910390f35b610419600480360381019061041491906132ee565b611083565b60405161042691906131b3565b60405180910390f35b61043761113d565b60405161044a9796959493929190613414565b60405180910390f35b61046d600480360381019061046891906132ae565b6111e7565b60405161047a9190612c6c565b60405180910390f35b61048b611252565b6040516104989190612d17565b60405180910390f35b6104bb60048036038101906104b69190612d6f565b6112e4565b6040516104c891906131b3565b60405180910390f35b6104d96112fc565b6040516104e69190613293565b60405180910390f35b610509600480360381019061050491906134c4565b611303565b005b610525600480360381019061052091906135a5565b611319565b005b610541600480360381019061053c9190612d6f565b61133e565b6040516105519493929190613637565b60405180910390f35b610574600480360381019061056f9190612d6f565b61139b565b6040516105819190612d17565b60405180910390f35b6105a4600480360381019061059f91906132ae565b61144a565b005b6105ae61146c565b6040516105bb9190613293565b60405180910390f35b6105de60048036038101906105d9919061367c565b611490565b6040516105eb9190612c6c565b60405180910390f35b61060e600480360381019061060991906136bc565b611524565b60405161061b91906131b3565b60405180910390f35b61063e60048036038101906106399190613257565b61153c565b60405161064b9190612c6c565b60405180910390f35b600061065f8261155c565b9050919050565b60606000805461067590613718565b80601f01602080910402602001604051908101604052809291908181526020018280546106a190613718565b80156106ee5780601f106106c3576101008083540402835291602001916106ee565b820191906000526020600020905b8154815290600101906020018083116106d157829003601f168201915b5050505050905090565b6000610703826115d6565b5061070d8261165e565b9050919050565b7fa2ce6da432ca018c0a930f8d32cbef4b1852a51301976b8a0da30776fc502ed461073e8161169b565b600073ffffffffffffffffffffffffffffffffffffffff16600a600087815260200190815260200160002060000160009054906101000a900473ffffffffffffffffffffffffffffffffffffffff1673ffffffffffffffffffffffffffffffffffffffff16146107e3576040517f08c379a00000000000000000000000000000000000000000000000000000000081526004016107da90613795565b60405180910390fd5b600073ffffffffffffffffffffffffffffffffffffffff168473ffffffffffffffffffffffffffffffffffffffff1603610852576040517f08c379a000000000000000000000000000000000000000000000000000000000815260040161084990613827565b60405180910390fd5b60008260ff16118015610869575060038260ff1611155b6108a8576040517f08c379a000000000000000000000000000000000000000000000000000000000815260040161089f90613893565b60405180910390fd5b60405180608001604052808573ffffffffffffffffffffffffffffffffffffffff168152602001848152602001600081526020018360ff16815250600a600087815260200190815260200160002060008201518160000160006101000a81548173ffffffffffffffffffffffffffffffffffffffff021916908373ffffffffffffffffffffffffffffffffffffffff160217905550602082015181600101556040820151816002015560608201518160030160006101000a81548160ff021916908360ff1602179055509050508373ffffffffffffffffffffffffffffffffffffffff16857fbee504874ff73921e780fc6e7c2e7bc37d6ed11474a4aa8ab89c96865951666a85856040516109be9291906138b3565b60405180910390a35050505050565b6109df82826109da6116af565b6116b7565b5050565b6000801b6109f08161169b565b81600d60008560ff1660ff16815260200190815260200160002081905550505050565b60003373ffffffffffffffffffffffffffffffffffffffff168873ffffffffffffffffffffffffffffffffffffffff1614610a83576040517f08c379a0000000000000000000000000000000000000000000000000000000008152600401610a7a9061394e565b60405180910390fd5b6000600a60008881526020019081526020016000209050600073ffffffffffffffffffffffffffffffffffffffff168160000160009054906101000a900473ffffffffffffffffffffffffffffffffffffffff1673ffffffffffffffffffffffffffffffffffffffff1603610b2d576040517f08c379a0000000000000000000000000000000000000000000000000000000008152600401610b24906139ba565b60405180910390fd5b600081600101541115610b85578060010154816002015410610b84576040517f08c379a0000000000000000000000000000000000000000000000000000000008152600401610b7b90613a26565b60405180910390fd5b5b6000610bdc7fe316f905d5fa9db65da6e108cc09c0e18459242c7ab4567c966d81b8950118038b8a8a604051602001610bc19493929190613a46565b604051602081830303815290604052805190602001206116c9565b9050600b600082815260200190815260200160002060009054906101000a900460ff1615610c3f576040517f08c379a0000000000000000000000000000000000000000000000000000000008152600401610c3690613ad7565b60405180910390fd5b6000610c8f8287878080601f016020809104026020016040519081016040528093929190818152602001838380828437600081840152601f19601f820116905080830192505050505050506116e3565b90508260000160009054906101000a900473ffffffffffffffffffffffffffffffffffffffff1673ffffffffffffffffffffffffffffffffffffffff168173ffffffffffffffffffffffffffffffffffffffff1614610d23576040517f08c379a0000000000000000000000000000000000000000000000000000000008152600401610d1a90613b69565b60405180910390fd5b826002016000815480929190610d3890613bb8565b91905055506001600b600084815260200190815260200160002060006101000a81548160ff021916908315150217905550600060096000815480929190610d7e90613bb8565b919050559050610dae7f00000000000000000000000000000000000000000000000000000000000000008261170f565b610db88189611808565b8a600c6000838152602001908152602001600020819055508360000160009054906101000a900473ffffffffffffffffffffffffffffffffffffffff1673ffffffffffffffffffffffffffffffffffffffff16818c7f28d75348e53ab419ed791e7b84d7a3e70933625cd39eef8893b70b857b2bb4078760030160009054906101000a900460ff16604051610e4d9190613c00565b60405180910390a480945050505050979650505050505050565b600073ffffffffffffffffffffffffffffffffffffffff168273ffffffffffffffffffffffffffffffffffffffff1603610ed95760006040517f64a0ae92000000000000000000000000000000000000000000000000000000008152600401610ed09190612ddd565b60405180910390fd5b6000610eed8383610ee86116af565b61182d565b90508373ffffffffffffffffffffffffffffffffffffffff168173ffffffffffffffffffffffffffffffffffffffff1614610f63578382826040517f64283d7b000000000000000000000000000000000000000000000000000000008152600401610f5a93929190613c1b565b60405180910390fd5b50505050565b600060066000838152602001908152602001600020600101549050919050565b610f9282610f69565b610f9b8161169b565b610fa58383611949565b50505050565b610fb36116af565b73ffffffffffffffffffffffffffffffffffffffff168173ffffffffffffffffffffffffffffffffffffffff1614611017576040517f6697b23200000000000000000000000000000000000000000000000000000000815260040160405180910390fd5b6110218282611a3b565b505050565b61104183838360405180602001604052806000815250611319565b505050565b6000919050565b7f000000000000000000000000000000000000000000000000000000000000000081565b600061107c826115d6565b9050919050565b60008073ffffffffffffffffffffffffffffffffffffffff168273ffffffffffffffffffffffffffffffffffffffff16036110f65760006040517f89c62b640000000000000000000000000000000000000000000000000000000081526004016110ed9190612ddd565b60405180910390fd5b600360008373ffffffffffffffffffffffffffffffffffffffff1673ffffffffffffffffffffffffffffffffffffffff168152602001908152602001600020549050919050565b600060608060008060006060611151611b2e565b611159611b69565b46306000801b600067ffffffffffffffff81111561117a57611179612f4e565b5b6040519080825280602002602001820160405280156111a85781602001602082028036833780820191505090505b507f0f00000000000000000000000000000000000000000000000000000000000000959493929190965096509650965096509650965090919293949596565b60006006600084815260200190815260200160002060000160008373ffffffffffffffffffffffffffffffffffffffff1673ffffffffffffffffffffffffffffffffffffffff16815260200190815260200160002060009054906101000a900460ff16905092915050565b60606001805461126190613718565b80601f016020809104026020016040519081016040528092919081815260200182805461128d90613718565b80156112da5780601f106112af576101008083540402835291602001916112da565b820191906000526020600020905b8154815290600101906020018083116112bd57829003601f168201915b5050505050905090565b600c6020528060005260406000206000915090505481565b6000801b81565b61131561130e6116af565b8383611ba4565b5050565b611324848484610e67565b61133861132f6116af565b85858585611d13565b50505050565b600a6020528060005260406000206000915090508060000160009054906101000a900473ffffffffffffffffffffffffffffffffffffffff16908060010154908060020154908060030160009054906101000a900460ff16905084565b60606113a6826115d6565b50600e600083815260200190815260200160002080546113c590613718565b80601f01602080910402602001604051908101604052809291908181526020018280546113f190613718565b801561143e5780601f106114135761010080835404028352916020019161143e565b820191906000526020600020905b81548152906001019060200180831161142157829003601f168201915b50505050509050919050565b61145382610f69565b61145c8161169b565b6114668383611a3b565b50505050565b7fa2ce6da432ca018c0a930f8d32cbef4b1852a51301976b8a0da30776fc502ed481565b6000600560008473ffffffffffffffffffffffffffffffffffffffff1673ffffffffffffffffffffffffffffffffffffffff16815260200190815260200160002060008373ffffffffffffffffffffffffffffffffffffffff1673ffffffffffffffffffffffffffffffffffffffff16815260200190815260200160002060009054906101000a900460ff16905092915050565b600d6020528060005260406000206000915090505481565b600b6020528060005260406000206000915054906101000a900460ff1681565b60007f7965db0b000000000000000000000000000000000000000000000000000000007bffffffffffffffffffffffffffffffffffffffffffffffffffffffff1916827bffffffffffffffffffffffffffffffffffffffffffffffffffffffff191614806115cf57506115ce82611ec4565b5b9050919050565b6000806115e283611fa6565b9050600073ffffffffffffffffffffffffffffffffffffffff168173ffffffffffffffffffffffffffffffffffffffff160361165557826040517f7e27328900000000000000000000000000000000000000000000000000000000815260040161164c91906131b3565b60405180910390fd5b80915050919050565b60006004600083815260200190815260200160002060009054906101000a900473ffffffffffffffffffffffffffffffffffffffff169050919050565b6116ac816116a76116af565b611fe3565b50565b600033905090565b6116c48383836001612034565b505050565b60006116dc6116d66121f9565b836122b0565b9050919050565b6000806000806116f386866122f1565b925092509250611703828261234d565b82935050505092915050565b600073ffffffffffffffffffffffffffffffffffffffff168273ffffffffffffffffffffffffffffffffffffffff16036117815760006040517f64a0ae920000000000000000000000000000000000000000000000000000000081526004016117789190612ddd565b60405180910390fd5b600061178f8383600061182d565b9050600073ffffffffffffffffffffffffffffffffffffffff168173ffffffffffffffffffffffffffffffffffffffff16146118035760006040517f73c6ac6e0000000000000000000000000000000000000000000000000000000081526004016117fa9190612ddd565b60405180910390fd5b505050565b80600e600084815260200190815260200160002090816118289190613dfe565b505050565b60008061183984611fa6565b9050600073ffffffffffffffffffffffffffffffffffffffff168173ffffffffffffffffffffffffffffffffffffffff1614611934578473ffffffffffffffffffffffffffffffffffffffff168173ffffffffffffffffffffffffffffffffffffffff1614806118f457507f000000000000000000000000000000000000000000000000000000000000000073ffffffffffffffffffffffffffffffffffffffff168173ffffffffffffffffffffffffffffffffffffffff16145b611933576040517f08c379a000000000000000000000000000000000000000000000000000000000815260040161192a90613f42565b60405180910390fd5b5b61193f8585856124b1565b9150509392505050565b600061195583836111e7565b611a305760016006600085815260200190815260200160002060000160008473ffffffffffffffffffffffffffffffffffffffff1673ffffffffffffffffffffffffffffffffffffffff16815260200190815260200160002060006101000a81548160ff0219169083151502179055506119cd6116af565b73ffffffffffffffffffffffffffffffffffffffff168273ffffffffffffffffffffffffffffffffffffffff16847f2f8788117e7eff1d82e926ec794901d17c78024a50270940304540a733656f0d60405160405180910390a460019050611a35565b600090505b92915050565b6000611a4783836111e7565b15611b235760006006600085815260200190815260200160002060000160008473ffffffffffffffffffffffffffffffffffffffff1673ffffffffffffffffffffffffffffffffffffffff16815260200190815260200160002060006101000a81548160ff021916908315150217905550611ac06116af565b73ffffffffffffffffffffffffffffffffffffffff168273ffffffffffffffffffffffffffffffffffffffff16847ff6391f5c32d9c69d2a47ea670b442974b53935d1edc7fd64eb21e047a839171b60405160405180910390a460019050611b28565b600090505b92915050565b6060611b6460077f00000000000000000000000000000000000000000000000000000000000000006126cb90919063ffffffff16565b905090565b6060611b9f60087f00000000000000000000000000000000000000000000000000000000000000006126cb90919063ffffffff16565b905090565b600073ffffffffffffffffffffffffffffffffffffffff168273ffffffffffffffffffffffffffffffffffffffff1603611c1557816040517f5b08ba18000000000000000000000000000000000000000000000000000000008152600401611c0c9190612ddd565b60405180910390fd5b80600560008573ffffffffffffffffffffffffffffffffffffffff1673ffffffffffffffffffffffffffffffffffffffff16815260200190815260200160002060008473ffffffffffffffffffffffffffffffffffffffff1673ffffffffffffffffffffffffffffffffffffffff16815260200190815260200160002060006101000a81548160ff0219169083151502179055508173ffffffffffffffffffffffffffffffffffffffff168373ffffffffffffffffffffffffffffffffffffffff167f17307eab39ab6107e8899845ad3d59bd9653f200f220920489ca2b5937696c3183604051611d069190612c6c565b60405180910390a3505050565b60008373ffffffffffffffffffffffffffffffffffffffff163b1115611ebd578273ffffffffffffffffffffffffffffffffffffffff1663150b7a02868685856040518563ffffffff1660e01b8152600401611d729493929190613fb7565b6020604051808303816000875af1925050508015611dae57506040513d601f19601f82011682018060405250810190611dab9190614018565b60015b611e32573d8060008114611dde576040519150601f19603f3d011682016040523d82523d6000602084013e611de3565b606091505b506000815103611e2a57836040517f64a0ae92000000000000000000000000000000000000000000000000000000008152600401611e219190612ddd565b60405180910390fd5b805160208201fd5b63150b7a0260e01b7bffffffffffffffffffffffffffffffffffffffffffffffffffffffff1916817bffffffffffffffffffffffffffffffffffffffffffffffffffffffff191614611ebb57836040517f64a0ae92000000000000000000000000000000000000000000000000000000008152600401611eb29190612ddd565b60405180910390fd5b505b5050505050565b60007f80ac58cd000000000000000000000000000000000000000000000000000000007bffffffffffffffffffffffffffffffffffffffffffffffffffffffff1916827bffffffffffffffffffffffffffffffffffffffffffffffffffffffff19161480611f8f57507f5b5e139f000000000000000000000000000000000000000000000000000000007bffffffffffffffffffffffffffffffffffffffffffffffffffffffff1916827bffffffffffffffffffffffffffffffffffffffffffffffffffffffff1916145b80611f9f5750611f9e8261277b565b5b9050919050565b60006002600083815260200190815260200160002060009054906101000a900473ffffffffffffffffffffffffffffffffffffffff169050919050565b611fed82826111e7565b6120305780826040517fe2517d3f000000000000000000000000000000000000000000000000000000008152600401612027929190614045565b60405180910390fd5b5050565b808061206d5750600073ffffffffffffffffffffffffffffffffffffffff168273ffffffffffffffffffffffffffffffffffffffff1614155b156121a157600061207d846115d6565b9050600073ffffffffffffffffffffffffffffffffffffffff168373ffffffffffffffffffffffffffffffffffffffff16141580156120e857508273ffffffffffffffffffffffffffffffffffffffff168173ffffffffffffffffffffffffffffffffffffffff1614155b80156120fb57506120f98184611490565b155b1561213d57826040517fa9fbf51f0000000000000000000000000000000000000000000000000000000081526004016121349190612ddd565b60405180910390fd5b811561219f57838573ffffffffffffffffffffffffffffffffffffffff168273ffffffffffffffffffffffffffffffffffffffff167f8c5be1e5ebec7d5bd14f71427d1e84f3dd0314c0f7b2291e5b200ac8c7c3b92560405160405180910390a45b505b836004600085815260200190815260200160002060006101000a81548173ffffffffffffffffffffffffffffffffffffffff021916908373ffffffffffffffffffffffffffffffffffffffff16021790555050505050565b60007f000000000000000000000000000000000000000000000000000000000000000073ffffffffffffffffffffffffffffffffffffffff163073ffffffffffffffffffffffffffffffffffffffff1614801561227557507f000000000000000000000000000000000000000000000000000000000000000046145b156122a2577f000000000000000000000000000000000000000000000000000000000000000090506122ad565b6122aa6127e5565b90505b90565b60006040517f190100000000000000000000000000000000000000000000000000000000000081528360028201528260228201526042812091505092915050565b600080600060418451036123365760008060006020870151925060408701519150606087015160001a90506123288882858561287b565b955095509550505050612346565b60006002855160001b9250925092505b9250925092565b600060038111156123615761236061406e565b5b8260038111156123745761237361406e565b5b03156124ad576001600381111561238e5761238d61406e565b5b8260038111156123a1576123a061406e565b5b036123d8576040517ff645eedf00000000000000000000000000000000000000000000000000000000815260040160405180910390fd5b600260038111156123ec576123eb61406e565b5b8260038111156123ff576123fe61406e565b5b03612444578060001c6040517ffce698f700000000000000000000000000000000000000000000000000000000815260040161243b91906131b3565b60405180910390fd5b6003808111156124575761245661406e565b5b82600381111561246a5761246961406e565b5b036124ac57806040517fd78bce0c0000000000000000000000000000000000000000000000000000000081526004016124a39190613293565b60405180910390fd5b5b5050565b6000806124bd84611fa6565b9050600073ffffffffffffffffffffffffffffffffffffffff168373ffffffffffffffffffffffffffffffffffffffff16146124ff576124fe81848661296f565b5b600073ffffffffffffffffffffffffffffffffffffffff168173ffffffffffffffffffffffffffffffffffffffff161461259057612541600085600080612034565b6001600360008373ffffffffffffffffffffffffffffffffffffffff1673ffffffffffffffffffffffffffffffffffffffff168152602001908152602001600020600082825403925050819055505b600073ffffffffffffffffffffffffffffffffffffffff168573ffffffffffffffffffffffffffffffffffffffff1614612613576001600360008773ffffffffffffffffffffffffffffffffffffffff1673ffffffffffffffffffffffffffffffffffffffff168152602001908152602001600020600082825401925050819055505b846002600086815260200190815260200160002060006101000a81548173ffffffffffffffffffffffffffffffffffffffff021916908373ffffffffffffffffffffffffffffffffffffffff160217905550838573ffffffffffffffffffffffffffffffffffffffff168273ffffffffffffffffffffffffffffffffffffffff167fddf252ad1be2c89b69c2b068fc378daa952ba7f163c4a11628f55a4df523b3ef60405160405180910390a4809150509392505050565b606060ff60001b83146126e8576126e183612a33565b9050612775565b8180546126f490613718565b80601f016020809104026020016040519081016040528092919081815260200182805461272090613718565b801561276d5780601f106127425761010080835404028352916020019161276d565b820191906000526020600020905b81548152906001019060200180831161275057829003601f168201915b505050505090505b92915050565b60007f01ffc9a7000000000000000000000000000000000000000000000000000000007bffffffffffffffffffffffffffffffffffffffffffffffffffffffff1916827bffffffffffffffffffffffffffffffffffffffffffffffffffffffff1916149050919050565b60007f8b73c3c69bb8fe3d512ecc4cf759cc79239f7b179b0ffacaa9a75d522b39400f7f00000000000000000000000000000000000000000000000000000000000000007f0000000000000000000000000000000000000000000000000000000000000000463060405160200161286095949392919061409d565b60405160208183030381529060405280519060200120905090565b60008060007f7fffffffffffffffffffffffffffffff5d576e7357a4501ddfe92f46681b20a08460001c11156128bb576000600385925092509250612965565b6000600188888888604051600081526020016040526040516128e094939291906140f0565b6020604051602081039080840390855afa158015612902573d6000803e3d6000fd5b505050602060405103519050600073ffffffffffffffffffffffffffffffffffffffff168173ffffffffffffffffffffffffffffffffffffffff160361295657600060016000801b93509350935050612965565b8060008060001b935093509350505b9450945094915050565b61297a838383612aa7565b612a2e57600073ffffffffffffffffffffffffffffffffffffffff168373ffffffffffffffffffffffffffffffffffffffff16036129ef57806040517f7e2732890000000000000000000000000000000000000000000000000000000081526004016129e691906131b3565b60405180910390fd5b81816040517f177e802f000000000000000000000000000000000000000000000000000000008152600401612a25929190614135565b60405180910390fd5b505050565b60606000612a4083612b68565b90506000602067ffffffffffffffff811115612a5f57612a5e612f4e565b5b6040519080825280601f01601f191660200182016040528015612a915781602001600182028036833780820191505090505b5090508181528360208201528092505050919050565b60008073ffffffffffffffffffffffffffffffffffffffff168373ffffffffffffffffffffffffffffffffffffffff1614158015612b5f57508273ffffffffffffffffffffffffffffffffffffffff168473ffffffffffffffffffffffffffffffffffffffff161480612b205750612b1f8484611490565b5b80612b5e57508273ffffffffffffffffffffffffffffffffffffffff16612b468361165e565b73ffffffffffffffffffffffffffffffffffffffff16145b5b90509392505050565b60008060ff8360001c169050601f811115612baf576040517fb3512b0c00000000000000000000000000000000000000000000000000000000815260040160405180910390fd5b80915050919050565b6000604051905090565b600080fd5b600080fd5b60007fffffffff0000000000000000000000000000000000000000000000000000000082169050919050565b612c0181612bcc565b8114612c0c57600080fd5b50565b600081359050612c1e81612bf8565b92915050565b600060208284031215612c3a57612c39612bc2565b5b6000612c4884828501612c0f565b91505092915050565b60008115159050919050565b612c6681612c51565b82525050565b6000602082019050612c816000830184612c5d565b92915050565b600081519050919050565b600082825260208201905092915050565b60005b83811015612cc1578082015181840152602081019050612ca6565b60008484015250505050565b6000601f19601f8301169050919050565b6000612ce982612c87565b612cf38185612c92565b9350612d03818560208601612ca3565b612d0c81612ccd565b840191505092915050565b60006020820190508181036000830152612d318184612cde565b905092915050565b6000819050919050565b612d4c81612d39565b8114612d5757600080fd5b50565b600081359050612d6981612d43565b92915050565b600060208284031215612d8557612d84612bc2565b5b6000612d9384828501612d5a565b91505092915050565b600073ffffffffffffffffffffffffffffffffffffffff82169050919050565b6000612dc782612d9c565b9050919050565b612dd781612dbc565b82525050565b6000602082019050612df26000830184612dce565b92915050565b612e0181612dbc565b8114612e0c57600080fd5b50565b600081359050612e1e81612df8565b92915050565b600060ff82169050919050565b612e3a81612e24565b8114612e4557600080fd5b50565b600081359050612e5781612e31565b92915050565b60008060008060808587031215612e7757612e76612bc2565b5b6000612e8587828801612d5a565b9450506020612e9687828801612e0f565b9350506040612ea787828801612d5a565b9250506060612eb887828801612e48565b91505092959194509250565b60008060408385031215612edb57612eda612bc2565b5b6000612ee985828601612e0f565b9250506020612efa85828601612d5a565b9150509250929050565b60008060408385031215612f1b57612f1a612bc2565b5b6000612f2985828601612e48565b9250506020612f3a85828601612d5a565b9150509250929050565b600080fd5b600080fd5b7f4e487b7100000000000000000000000000000000000000000000000000000000600052604160045260246000fd5b612f8682612ccd565b810181811067ffffffffffffffff82111715612fa557612fa4612f4e565b5b80604052505050565b6000612fb8612bb8565b9050612fc48282612f7d565b919050565b600067ffffffffffffffff821115612fe457612fe3612f4e565b5b612fed82612ccd565b9050602081019050919050565b82818337600083830152505050565b600061301c61301784612fc9565b612fae565b90508281526020810184848401111561303857613037612f49565b5b613043848285612ffa565b509392505050565b600082601f8301126130605761305f612f44565b5b8135613070848260208601613009565b91505092915050565b600080fd5b600080fd5b60008083601f84011261309957613098612f44565b5b8235905067ffffffffffffffff8111156130b6576130b5613079565b5b6020830191508360018202830111156130d2576130d161307e565b5b9250929050565b600080600080600080600060c0888a0312156130f8576130f7612bc2565b5b60006131068a828b01612e0f565b97505060206131178a828b01612d5a565b96505060406131288a828b01612d5a565b95505060606131398a828b01612d5a565b945050608088013567ffffffffffffffff81111561315a57613159612bc7565b5b6131668a828b0161304b565b93505060a088013567ffffffffffffffff81111561318757613186612bc7565b5b6131938a828b01613083565b925092505092959891949750929550565b6131ad81612d39565b82525050565b60006020820190506131c860008301846131a4565b92915050565b6000806000606084860312156131e7576131e6612bc2565b5b60006131f586828701612e0f565b935050602061320686828701612e0f565b925050604061321786828701612d5a565b9150509250925092565b6000819050919050565b61323481613221565b811461323f57600080fd5b50565b6000813590506132518161322b565b92915050565b60006020828403121561326d5761326c612bc2565b5b600061327b84828501613242565b91505092915050565b61328d81613221565b82525050565b60006020820190506132a86000830184613284565b92915050565b600080604083850312156132c5576132c4612bc2565b5b60006132d385828601613242565b92505060206132e485828601612e0f565b9150509250929050565b60006020828403121561330457613303612bc2565b5b600061331284828501612e0f565b91505092915050565b60007fff0000000000000000000000000000000000000000000000000000000000000082169050919050565b6133508161331b565b82525050565b600081519050919050565b600082825260208201905092915050565b6000819050602082019050919050565b61338b81612d39565b82525050565b600061339d8383613382565b60208301905092915050565b6000602082019050919050565b60006133c182613356565b6133cb8185613361565b93506133d683613372565b8060005b838110156134075781516133ee8882613391565b97506133f9836133a9565b9250506001810190506133da565b5085935050505092915050565b600060e082019050613429600083018a613347565b818103602083015261343b8189612cde565b9050818103604083015261344f8188612cde565b905061345e60608301876131a4565b61346b6080830186612dce565b61347860a0830185613284565b81810360c083015261348a81846133b6565b905098975050505050505050565b6134a181612c51565b81146134ac57600080fd5b50565b6000813590506134be81613498565b92915050565b600080604083850312156134db576134da612bc2565b5b60006134e985828601612e0f565b92505060206134fa858286016134af565b9150509250929050565b600067ffffffffffffffff82111561351f5761351e612f4e565b5b61352882612ccd565b9050602081019050919050565b600061354861354384613504565b612fae565b90508281526020810184848401111561356457613563612f49565b5b61356f848285612ffa565b509392505050565b600082601f83011261358c5761358b612f44565b5b813561359c848260208601613535565b91505092915050565b600080600080608085870312156135bf576135be612bc2565b5b60006135cd87828801612e0f565b94505060206135de87828801612e0f565b93505060406135ef87828801612d5a565b925050606085013567ffffffffffffffff8111156136105761360f612bc7565b5b61361c87828801613577565b91505092959194509250565b61363181612e24565b82525050565b600060808201905061364c6000830187612dce565b61365960208301866131a4565b61366660408301856131a4565b6136736060830184613628565b95945050505050565b6000806040838503121561369357613692612bc2565b5b60006136a185828601612e0f565b92505060206136b285828601612e0f565b9150509250929050565b6000602082840312156136d2576136d1612bc2565b5b60006136e084828501612e48565b91505092915050565b7f4e487b7100000000000000000000000000000000000000000000000000000000600052602260045260246000fd5b6000600282049050600182168061373057607f821691505b602082108103613743576137426136e9565b5b50919050565b7f54656d706c61746520494420616c726561647920657869737473000000000000600082015250565b600061377f601a83612c92565b915061378a82613749565b602082019050919050565b600060208201905081810360008301526137ae81613772565b9050919050565b7f4973737565722063616e6e6f7420626520746865207a65726f2061646472657360008201527f7300000000000000000000000000000000000000000000000000000000000000602082015250565b6000613811602183612c92565b915061381c826137b5565b604082019050919050565b6000602082019050818103600083015261384081613804565b9050919050565b7f496e76616c696420746965720000000000000000000000000000000000000000600082015250565b600061387d600c83612c92565b915061388882613847565b602082019050919050565b600060208201905081810360008301526138ac81613870565b9050919050565b60006040820190506138c860008301856131a4565b6138d56020830184613628565b9392505050565b7f5369676e617475726520697320666f72206120646966666572656e742075736560008201527f7200000000000000000000000000000000000000000000000000000000000000602082015250565b6000613938602183612c92565b9150613943826138dc565b604082019050919050565b600060208201905081810360008301526139678161392b565b9050919050565b7f54656d706c61746520646f6573206e6f74206578697374000000000000000000600082015250565b60006139a4601783612c92565b91506139af8261396e565b602082019050919050565b600060208201905081810360008301526139d381613997565b9050919050565b7f4d617820737570706c7920726561636865640000000000000000000000000000600082015250565b6000613a10601283612c92565b9150613a1b826139da565b602082019050919050565b60006020820190508181036000830152613a3f81613a03565b9050919050565b6000608082019050613a5b6000830187613284565b613a686020830186612dce565b613a7560408301856131a4565b613a8260608301846131a4565b95945050505050565b7f5369676e61747572652068617320616c7265616479206265656e207573656400600082015250565b6000613ac1601f83612c92565b9150613acc82613a8b565b602082019050919050565b60006020820190508181036000830152613af081613ab4565b9050919050565b7f496e76616c6964207369676e61747572652066726f6d20756e617574686f726960008201527f7a65642069737375657200000000000000000000000000000000000000000000602082015250565b6000613b53602a83612c92565b9150613b5e82613af7565b604082019050919050565b60006020820190508181036000830152613b8281613b46565b9050919050565b7f4e487b7100000000000000000000000000000000000000000000000000000000600052601160045260246000fd5b6000613bc382612d39565b91507fffffffffffffffffffffffffffffffffffffffffffffffffffffffffffffffff8203613bf557613bf4613b89565b5b600182019050919050565b6000602082019050613c156000830184613628565b92915050565b6000606082019050613c306000830186612dce565b613c3d60208301856131a4565b613c4a6040830184612dce565b949350505050565b60008190508160005260206000209050919050565b60006020601f8301049050919050565b600082821b905092915050565b600060088302613cb47fffffffffffffffffffffffffffffffffffffffffffffffffffffffffffffffff82613c77565b613cbe8683613c77565b95508019841693508086168417925050509392505050565b6000819050919050565b6000613cfb613cf6613cf184612d39565b613cd6565b612d39565b9050919050565b6000819050919050565b613d1583613ce0565b613d29613d2182613d02565b848454613c84565b825550505050565b600090565b613d3e613d31565b613d49818484613d0c565b505050565b5b81811015613d6d57613d62600082613d36565b600181019050613d4f565b5050565b601f821115613db257613d8381613c52565b613d8c84613c67565b81016020851015613d9b578190505b613daf613da785613c67565b830182613d4e565b50505b505050565b600082821c905092915050565b6000613dd560001984600802613db7565b1980831691505092915050565b6000613dee8383613dc4565b9150826002028217905092915050565b613e0782612c87565b67ffffffffffffffff811115613e2057613e1f612f4e565b5b613e2a8254613718565b613e35828285613d71565b600060209050601f831160018114613e685760008415613e56578287015190505b613e608582613de2565b865550613ec8565b601f198416613e7686613c52565b60005b82811015613e9e57848901518255600182019150602085019450602081019050613e79565b86831015613ebb5784890151613eb7601f891682613dc4565b8355505b6001600288020188555050505b505050505050565b7f52657075746174696f6e436172647320617265206e6f6e2d7472616e7366657260008201527f61626c6500000000000000000000000000000000000000000000000000000000602082015250565b6000613f2c602483612c92565b9150613f3782613ed0565b604082019050919050565b60006020820190508181036000830152613f5b81613f1f565b9050919050565b600081519050919050565b600082825260208201905092915050565b6000613f8982613f62565b613f938185613f6d565b9350613fa3818560208601612ca3565b613fac81612ccd565b840191505092915050565b6000608082019050613fcc6000830187612dce565b613fd96020830186612dce565b613fe660408301856131a4565b8181036060830152613ff88184613f7e565b905095945050505050565b60008151905061401281612bf8565b92915050565b60006020828403121561402e5761402d612bc2565b5b600061403c84828501614003565b91505092915050565b600060408201905061405a6000830185612dce565b6140676020830184613284565b9392505050565b7f4e487b7100000000000000000000000000000000000000000000000000000000600052602160045260246000fd5b600060a0820190506140b26000830188613284565b6140bf6020830187613284565b6140cc6040830186613284565b6140d960608301856131a4565b6140e66080830184612dce565b9695505050505050565b60006080820190506141056000830187613284565b6141126020830186613628565b61411f6040830185613284565b61412c6060830184613284565b95945050505050565b600060408201905061414a6000830185612dce565b61415760208301846131a4565b939250505056fea2646970667358221220c8e3fcb168a5d8580982ce5939734e9f9d0c18436c502d5f4d3e7dd3ec82097964736f6c63430008140033",
  "linkReferences": {},
  "deployedLinkReferences": {}
}